{
  "address": "0x7cB3a8dab92bdACDd23E70e3adD8396AE61824EB",
  "abi": [
    {
      "inputs": [],
      "stateMutability": "nonpayable",
      "type": "constructor"
    },
    {
      "anonymous": false,
      "inputs": [
        {
          "indexed": false,
          "internalType": "uint256",
          "name": "number",
          "type": "uint256"
        }
      ],
      "name": "CountedTo",
      "type": "event"
    },
    {
      "inputs": [],
      "name": "countDown",
      "outputs": [
        {
          "internalType": "uint256",
          "name": "",
          "type": "uint256"
        }
      ],
      "stateMutability": "nonpayable",
      "type": "function"
    },
    {
      "inputs": [],
      "name": "countUp",
      "outputs": [
        {
          "internalType": "uint256",
          "name": "",
          "type": "uint256"
        }
      ],
      "stateMutability": "nonpayable",
      "type": "function"
    },
    {
      "inputs": [],
      "name": "getCount",
      "outputs": [
        {
          "internalType": "uint256",
          "name": "",
          "type": "uint256"
        }
      ],
      "stateMutability": "view",
      "type": "function"
    }
  ],
  "transactionHash": "0xb37d45593dde1cbd768a7dca14ecca51478bb4adeb43d51662613c5f88c352bb",
  "args": [],
  "solcInputHash": "e9bf37461d96df514487bcf74a66ce4e",
  "bytecode": "0x608060405234801561001057600080fd5b506000805561018c806100246000396000f3fe608060405234801561001057600080fd5b50600436106100415760003560e01c80630bd8599e146100465780635fcbd5b614610060578063a87d942c14610068575b600080fd5b61004e610070565b60408051918252519081900360200190f35b61004e6100ff565b61004e610150565b60008054600181019081116100bf576040805162461bcd60e51b815260206004820152601060248201526f55696e74323536206f766572666c6f7760801b604482015290519081900360640190fd5b60008190556040805182815290517fa501f5a8ef1a812bff54fb3642cfaec066c351af1716c48a7bdd05e0bb631e679181900360200190a1505060005490565b6000805460001981019081106100bf576040805162461bcd60e51b815260206004820152601160248201527055696e7432353620756e646572666c6f7760781b604482015290519081900360640190fd5b6000549056fea26469706673582212201d875a316c932adc9d767fe410bd0228a1fb231029fbf6c7dca28a7c86ebd68c64736f6c63430007040033",
  "devdoc": {
    "kind": "dev",
    "methods": {},
    "version": 1
  },
  "userdoc": {
    "kind": "user",
    "methods": {},
    "version": 1
  },
  "storageLayout": {
    "storage": [
      {
        "astId": 3,
        "contract": "contracts/Counter.sol:Counter",
        "label": "count",
        "offset": 0,
        "slot": "0",
        "type": "t_uint256"
      }
    ],
    "types": {
      "t_uint256": {
        "encoding": "inplace",
        "label": "uint256",
        "numberOfBytes": "32"
      }
    }
  }
}